:020000040800F2
:1000000000000220D91C00085D1A00085F1A0008D1
:10001000611A0008631A0008651A00080000000051
:10002000000000000000000000000000671A000847
:10003000691A0008000000006B1A00086D1A000819
:10004000291D0008291D0008291D0008291D000878
:10005000291D0008291D0008291D0008291D000868
:10006000291D0008291D0008291D0008291D000858
:10007000291D0008291D0008291D0008291D000848
:10008000291D0008291D0008291D0008291D000838
:10009000291D0008291D0008291D0008751A0008DF
:1000A000291D0008291D0008291D0008291D000818
:1000B000291D0008291D0008291D0008291D000808
:1000C000291D0008291D0008291D0008291D0008F8
:1000D000291D0008811A0008291D0008291D000893
:1000E000291D0008291D0008291D0008291D0008D8
:1000F000291D0008291D0008291D0008291D0008C8
:10010000291D0008291D0008291D0008911A000852
:10011000291D0008291D0008291D0008291D0008A7
:10012000291D0008291D0008A11A0008291D000822
:10013000291D0008291D0008291D0008291D000887
:10014000291D0008291D0008291D0008291D000877
:10015000291D0008291D0008B11A0008291D0008E2
:10016000291D0008291D0008291D0008291D000857
:10017000291D0008291D0008291D00080000000095
:08018000291D0008291D0008DB
:1001C0004FF0FF0C1CEAD0521EBF1CEAD15392EA3A
:1001D0000C0F93EA0C0F6FD01A4480EA010C400216
:1001E00018BF5FEA41211ED04FF0006343EA501070
:1001F00043EA5111A0FB01310CF00040B1F5000FB2
:100200003EBF490041EAD3715B0040EA010062F160
:100210007F02FD2A1DD8B3F1004F40EBC25008BF4A
:1002200020F00100704790F0000F0CF0004C08BF68
:1002300049024CEA502040EA51207F3AC2BFD2F135
:10024000FF0340EAC250704740F400004FF0000343
:10025000013A5DDC12F1190FDCBF00F0004070477D
:10026000C2F10002410021FA02F1C2F1200200FABB
:1002700002FC5FEA310040F1000053EA4C0308BF82
:1002800020EADC70704792F0000F00F0004C02BFD3
:10029000400010F4000F013AF9D040EA0C0093F04E
:1002A000000F01F0004C02BF490011F4000F013BA8
:1002B000F9D041EA0C018FE70CEAD15392EA0C0F16
:1002C00018BF93EA0C0F0AD030F0004C18BF31F081
:1002D000004CD8D180EA010000F00040704790F057
:1002E000000F17BF90F0004F084691F0000F91F0FB
:1002F000004F14D092EA0C0F01D142020FD193EAC1
:100300000C0F03D14B0218BF084608D180EA010048
:1003100000F0004040F0FE4040F40000704740F024
:10032000FE4040F44000704781F0004102E000BF11
:1003300083F0004330B54FEA41044FEA430594EAA5
:10034000050F08BF90EA020F1FBF54EA000C55EAE0
:10035000020C7FEA645C7FEA655C00F0E2804FEAB1
:100360005454D4EB5555B8BF6D420CDD2C4480EA93
:10037000020281EA030382EA000083EA010180EAC3
:10038000020281EA0303362D88BF30BD11F0004F11
:100390004FEA01314FF4801C4CEA113102D0404247
:1003A00061EB410113F0004F4FEA03334CEA133382
:1003B00002D0524263EB430394EA050F00F0A7809A
:1003C000A4F10104D5F1200E0DDB02FA0EFC22FA95
:1003D00005F2801841F1000103FA0EF2801843FA89
:1003E00005F359410EE0A5F120050EF1200E012A7A
:1003F00003FA0EFC28BF4CF0020C43FA05F3C018B8
:1004000051EBE37101F0004507D54FF0000EDCF130
:10041000000C7EEB00006EEB0101B1F5801F1BD3D9
:10042000B1F5001F0CD349085FEA30004FEA3C0CDD
:1004300004F101044FEA445212F5800F80F09A80D3
:10044000BCF1004F08BF5FEA500C50F1000041EBD7
:10045000045141EA050130BD5FEA4C0C404141EBDB
:100460000101013C28BFB1F5801FE9D291F0000FD6
:1004700004BF01460020B1FA81F308BF2033A3F185
:100480000B03B3F120020CDA0C3208DD02F1140C7C
:10049000C2F10C0201FA0CF021FA02F10CE002F1B7
:1004A0001402D8BFC2F1200C01FA02F120FA0CFCB0
:1004B000DCBF41EA0C019040E41AA2BF01EB0451F9
:1004C000294330BD6FEA04041F3C1CDA0C340EDCF7
:1004D00004F11404C4F1200220FA04F001FA02F33A
:1004E00040EA030021FA04F345EA030130BDC4F1F8
:1004F0000C04C4F1200220FA02F001FA04F340EAED
:100500000300294630BD21FA04F0294630BD94F09D
:10051000000F83F4801306BF81F480110134013D84
:100520004EE77FEA645C18BF7FEA655C29D094EAF5
:10053000050F08BF90EA020F05D054EA000C04BF73
:100540001946104630BD91EA030F1EBF002100205E
:1005500030BD5FEA545C05D14000494128BF41F0FD
:10056000004130BD14F580043CBF01F5801130BD61
:1005700001F0004545F0FE4141F470014FF00000EC
:1005800030BD7FEA645C1ABF194610467FEA655C9D
:100590001CBF0B46024650EA013406BF52EA03353F
:1005A00091EA030F41F4002130BD00BF90F0000F2D
:1005B00004BF0021704730B54FF4806404F1320469
:1005C0004FF000054FF0000150E700BF90F0000F22
:1005D00004BF0021704730B54FF4806404F1320449
:1005E00010F0004548BF40424FF000013EE700BF19
:1005F00042004FEAE2014FEA31014FEA02701FBFA9
:1006000012F07F4393F07F4F81F06051704732F0DA
:100610007F4208BF704793F07F4F04BF41F4002131
:10062000704730B54FF4607401F0004521F000418F
:100630001CE700BF50EA010208BF704730B54FF019
:1006400000050AE050EA010208BF704730B511F01A
:10065000004502D5404261EB41014FF4806404F152
:1006600032045FEA915C3FF4D8AE4FF003025FEAD8
:10067000DC0C18BF03325FEADC0C18BF033202EB5C
:10068000DC02C2F1200300FA03FC20FA02F001FAB6
:1006900003FE40EA0E0021FA02F11444BDE600BF59
:1006A0004FEA410212F5001215D211D56FF478739A
:1006B000B3EB625212D94FEAC12343F0004343EA3D
:1006C000505311F0004F23FA02F018BF4042704718
:1006D0004FF00000704750EA013005D111F00040A2
:1006E00008BF6FF0004070474FF00000704700BF38
:1006F00080F0004002E000BF81F0004142001FBFD7
:100700005FEA410392EA030F7FEA226C7FEA236CDF
:100710006AD04FEA1262D2EB1363C1BFD2184140D4
:1007200048404140B8BF5B42192B88BF704710F06A
:10073000004F40F4000020F07F4018BF404211F00D
:10074000004F41F4000121F07F4118BF494292EA75
:10075000030F3FD0A2F1010241FA03FC10EB0C00A1
:10076000C3F1200301FA03F100F0004302D549422E
:1007700060EB4000B0F5000F13D3B0F1807F06D3DB
:1007800040084FEA310102F10102FE2A51D2B1F1D3
:10079000004F40EBC25008BF20F0010040EA0300C8
:1007A0007047490040EB0000013A28BFB0F5000F48
:1007B000EDD2B0FA80FCACF1080CB2EB0C0200FAFE
:1007C0000CF0AABF00EBC25052421843BCBFD0404D
:1007D0001843704792F0000F81F4000106BF80F4C7
:1007E00000000132013BB5E74FEA41037FEA226C8A
:1007F00018BF7FEA236C21D092EA030F04D092F055
:10080000000F08BF0846704790EA010F1CBF002088
:10081000704712F07F4F04D1400028BF40F00040E5
:10082000704712F100723CBF00F50000704700F005
:10083000004343F0FE4040F4000070477FEA22622C
:1008400016BF08467FEA23630146420206BF5FEAFD
:10085000412390EA010F40F4800070474FF00003FD
:1008600004E000BF10F0004348BF40425FEA000CC4
:1008700008BF704743F0964301464FF000001CE06C
:1008800050EA010208BF70474FF000030AE000BFC2
:1008900050EA010208BF704711F0004302D5404200
:1008A00061EB41015FEA010C02BF84460146002072
:1008B00043F0B64308BFA3F18053A3F50003BCFA8D
:1008C0008CF2083AA3EBC25310DB01FA02FC63443A
:1008D00000FA02FCC2F12002BCF1004F20FA02F241
:1008E00043EB020008BF20F00100704702F1200234
:1008F00001FA02FCC2F1200250EA4C0021FA02F295
:1009000043EB020008BF20EADC7070474FEA400268
:10091000B2F1FE4F0FD34FF09E03B3EB12620DD92D
:100920004FEA002343F0004310F0004F23FA02F097
:1009300018BF404270474FF00000704712F1610F3E
:1009400001D1420205D110F0004008BF6FF0004015
:1009500070474FF00000704753B94AB9002908BFEB
:1009600000281CBF4FF0FF314FF0FF3000F00CB8F3
:10097000ADF1080C6DE904CE02F054FFDDF804E09F
:10098000DDE9022304B07047704700BF000000009B
:100990000000000000000000000000000000000057
:1009A0000000000000000000000000000000000047
:1009B0000000000000000000000000000000000037
:1009C00030B490F800F020F007016FF0000C10F048
:1009D000070491F820F040F048804FF000046FF0D9
:1009E0000700D1E9002391F840F000F1080082FAF5
:1009F0004CF2A4FA8CF283FA4CF3A2FA8CF34BBBC0
:100A0000D1E9022382FA4CF200F10800A4FA8CF238
:100A100083FA4CF3A2FA8CF3E3B9D1E9042382FA06
:100A20004CF200F10800A4FA8CF283FA4CF3A2FA1B
:100A30008CF37BB9D1E9062301F1200182FA4CF253
:100A400000F10800A4FA8CF283FA4CF3A2FA8CF3BA
:100A5000002BC6D0002A04BF04301A4612BAB2FADC
:100A600082F200EBD20030BC7047D1E9002304F0E1
:100A70000305C4F100004FEAC50514F0040F91F816
:100A800040F00CFA05F562EA05021CBF63EA0503B3
:100A900062464FF00004AAE70000000000000000DA
:100AA00001F0FF01102A2BDB10F0070F08D010F81F
:100AB000013B013A8B422DD010F0070F42B3F6D123
:100AC000F0B441EA012141EA014122F007047FF03C
:100AD00000070023F0E80256083C85EA010586EA93
:100AE000010685FA47F5A3FA87F586FA47F6A5FACF
:100AF00087F68EB9EED1F0BC01F0FF0102F00702DB
:100B000032B110F8013B013A83EA010313B1F8D185
:100B10000020704701387047002D06BF3546033866
:100B2000073815F0010F07D1013015F4807F02BF9F
:100B3000013015F4C03F0130F0BC0138704700BFF0
:100B4000844641EA000313F003036DD1403A41D3D8
:100B500051F8043B40F8043B51F8043B40F8043B97
:100B600051F8043B40F8043B51F8043B40F8043B87
:100B700051F8043B40F8043B51F8043B40F8043B77
:100B800051F8043B40F8043B51F8043B40F8043B67
:100B900051F8043B40F8043B51F8043B40F8043B57
:100BA00051F8043B40F8043B51F8043B40F8043B47
:100BB00051F8043B40F8043B51F8043B40F8043B37
:100BC00051F8043B40F8043B51F8043B40F8043B27
:100BD000403ABDD2303211D351F8043B40F8043BC7
:100BE00051F8043B40F8043B51F8043B40F8043B07
:100BF00051F8043B40F8043B103AEDD20C3205D3D7
:100C000051F8043B40F8043B043AF9D2043208D0CE
:100C1000D2071CBF11F8013B00F8013B01D30B8840
:100C200003806046704700BF082A13D38B078DD01E
:100C300010F003038AD0C3F10403D21ADB071CBFF0
:100C400011F8013B00F8013B80D331F8023B20F85A
:100C5000023B7BE7043AD9D3013A11F8013B00F893
:100C6000013BF9D20B7803704B7843708B7883701B
:100C70006046704770B54FF0FF0C4CF4E06C1CEA16
:100C800011541DBF1CEA135594EA0C0F95EA0C0F82
:100C900000F0DEF82C4481EA030621EA4C5123EAF5
:100CA0004C5350EA013518BF52EA033541F4801124
:100CB00043F4801338D0A0FB02CE4FF00005E1FBD7
:100CC00002E506F00042E0FB03E54FF00006E1FB21
:100CD00003569CF0000F18BF4EF0010EA4F1FF0464
:100CE000B6F5007F64F5407404D25FEA4E0E6D41A4
:100CF00046EB060642EAC62141EA55514FEAC520B5
:100D000040EA5E504FEACE2EB4F1FD0C88BFBCF530
:100D1000E06F1ED8BEF1004F08BF5FEA500E50F1E1
:100D2000000041EB045170BD06F0004646EA0101A7
:100D300040EA020081EA0301B4EB5C04C2BFD4EBD9
:100D40000C0541EA045170BD41F480114FF0000ED2
:100D5000013C00F3AB8014F1360FDEBF002001F040
:100D6000004170BDC4F10004203C35DA0C341BDCBA
:100D700004F11404C4F1200500FA05F320FA04F08C
:100D800001FA05F240EA020001F0004221F00041C0
:100D900010EBD37021FA04F642EB06015EEA430E33
:100DA00008BF20EAD37070BDC4F10C04C4F1200563
:100DB00000FA04F320FA05F001FA04F240EA020016
:100DC00001F0004110EBD37041F100015EEA430EE7
:100DD00008BF20EAD37070BDC4F1200500FA05F207
:100DE0004EEA020E20FA04F301FA05F243EA020386
:100DF00021FA04F001F0004121FA04F220EA020095
:100E000000EBD3705EEA430E08BF20EAD37070BDDA
:100E100094F0000F0FD101F00046400041EB0101BA
:100E200011F4801F08BF013CF7D041EA060195F09C
:100E3000000F18BF704703F00046520043EB030356
:100E400013F4801F08BF013DF7D043EA0603704743
:100E500094EA0C0F0CEA135518BF95EA0C0F0CD04E
:100E600050EA410618BF52EA4306D1D181EA030194
:100E700001F000414FF0000070BD50EA410606BF8E
:100E80001046194652EA430619D094EA0C0F02D1D3
:100E900050EA013613D195EA0C0F05D152EA033618
:100EA0001CBF104619460AD181EA030101F0004136
:100EB00041F0FE4141F470014FF0000070BD41F07F
:100EC000FE4141F4780170BD70B54FF0FF0C4CF459
:100ED000E06C1CEA11541DBF1CEA135594EA0C0F78
:100EE00095EA0C0F00F0A7F8A4EB050481EA030EC5
:100EF00052EA03354FEA013100F088804FEA0333AC
:100F00004FF0805545EA131343EA12634FEA022279
:100F100045EA111545EA10654FEA00260EF000413A
:100F20009D4208BF964244F1FD0404F5407402D28C
:100F30005B084FEA3202B61A65EB03055B084FEA1D
:100F400032024FF480104FF4002CB6EB020E75EB1A
:100F5000030E22BFB61A754640EA0C005B084FEA42
:100F60003202B6EB020E75EB030E22BFB61A7546BF
:100F700040EA5C005B084FEA3202B6EB020E75EB0A
:100F8000030E22BFB61A754640EA9C005B084FEA82
:100F90003202B6EB020E75EB030E22BFB61A75468F
:100FA00040EADC0055EA060E18D04FEA051545EA7E
:100FB00016754FEA06164FEAC30343EA52734FEA27
:100FC000C2025FEA1C1CC0D111F4801F0BD141EAA0
:100FD00000014FF000004FF0004CB6E711F4801F05
:100FE00004BF01430020B4F1FD0C88BFBCF5E06FE5
:100FF0003FF6AFAEB5EB030C04BFB6EB020C5FEAF5
:10100000500C50F1000041EB045170BD0EF0004E49
:101010004EEA113114EB5C04C2BFD4EB0C0541EA7B
:10102000045170BD41F480114FF0000E013C90E678
:1010300045EA060E8DE60CEA135594EA0C0F08BF3C
:1010400095EA0C0F3FF43BAF94EA0C0F0AD150EA3B
:1010500001347FF434AF95EA0C0F7FF425AF1046CE
:1010600019462CE795EA0C0F06D152EA03353FF4F6
:10107000FDAE1046194622E750EA410618BF52EA73
:1010800043067FF4C5AE50EA41047FF40DAF52EA47
:1010900043057FF4EBAE12E74FF0FF3C06E000BFE4
:1010A0004FF0010C02E000BF4FF0010C4DF804CDF1
:1010B0004FEA410C7FEA6C5C4FEA430C18BF7FEAB1
:1010C0006C5C1BD001B050EA410C0CBF52EA430CDF
:1010D00091EA030F02BF90EA020F0020704710F15F
:1010E000000F91EA030F58BF994208BF90422CBFEE
:1010F000D8176FEAE37040F0010070474FEA410CE7
:101100007FEA6C5C02D150EA013C07D14FEA430C04
:101110007FEA6C5CD6D152EA033CD3D05DF8040B75
:10112000704700BF8446104662468C4619466346A7
:1011300000E000BF01B5FFF7B7FF002848BF10F17E
:10114000000F01BD4DF808EDFFF7F4FF0CBF0120C3
:1011500000205DF808FB00BF4DF808EDFFF7EAFF3F
:1011600034BF012000205DF808FB00BF4DF808EDFA
:10117000FFF7E0FF94BF012000205DF808FB00BFEF
:101180004DF808EDFFF7CEFF94BF012000205DF879
:1011900008FB00BF4DF808EDFFF7C4FF34BF012086
:1011A00000205DF808FB00BF4FEA410C7FEA6C5C51
:1011B00002D150EA013C0AD14FEA430C7FEA6C5C51
:1011C00002D152EA033C02D14FF0000070474FF0C9
:1011D000010070470348044B834202D0034B03B124
:1011E00018477047C4060020C40600200000000015
:1011F0000548064B1B1AD90F01EBA301491002D079
:10120000034B03B118477047C4060020C4060020F2
:101210000000000010B5064C237843B9FFF7DAFF51
:10122000044B13B10448AFF300800123237010BDB9
:10123000C806002000000000089F000808B5054B04
:101240001BB105490548AFF30080BDE80840FFF732
:10125000CFBF00BF00000000CC060020089F0008A0
:1012600000B587B08DF80F000223009301230DF124
:1012700017020DF10F01044801F091FD9DF91700CF
:1012800007B05DF804FB00BFB80E002010B504469F
:10129000FFF7E6FF2046FFF7E3FF10BD10B540F073
:1012A00020042146094802F00BFD2046FFF7D8FF35
:1012B0000020FFF7D5FFFF20FFF7D2FFC4B2214681
:1012C000034802F0FDFC204610BD00BF209F00082F
:1012D000309F000870B50C4640F040050D4E30467A
:1012E00002F04EFD29460C4802F0EAFC21460B486C
:1012F00002F0E6FC304602F043FD2846FFF7B0FF5F
:101300000020FFF7ADFF2046FFF7AAFF012000F005
:101310005FFD70BD409F0008489F0008589F00086F
:1013200010B51120FFF7B2FF3A4C012240212046B0
:1013300001F0EAF84FF4FA7000F04AFD364802F086
:101340001FFD00224021204601F0DEF84FF47A70A4
:1013500000F03EFD01224021204601F0D5F84FF477
:10136000FA7000F035FD2D4802F00AFD0022102130
:10137000204601F0C9F81120FFF788FF4FF47A707A
:1013800000F026FD0BE00020FFF788FF0146244B0C
:101390001870244802F094FCC82000F019FD204B7E
:1013A0001978732901D05329EDD11F4802F088FC28
:1013B000E0210220FFF78EFF0A2000F009FD012145
:1013C0000846FFF787FFF0210320FFF783FF002186
:1013D0000420FFF77FFF00210520FFF77BFF30216E
:1013E0000620FFF777FF3F210720FFF773FFDE217D
:1013F0000920FFF76FFF07210A20FFF76BFF4FF46B
:10140000FA7000F0E5FC1020FFF740FF0820FFF71E
:101410003DFF10BD00000240689F0008789F000853
:10142000F00600208C9F00089C9F000838B5002221
:101430001021264801F068F8002300E00133312B29
:10144000FCDD002405E00020FFF70AFF204B1855C3
:101450000134082CF7DD002300E00133312BFCDDE3
:1014600000221BE0541C04EB4400194D2B5C19496D
:1014700041F822301B0241F8223000F1010C15F82E
:101480000CC043EA0C0341F822301B0241F8223021
:101490000230285C034341F82230E2B2012AE1D94C
:1014A0000C4B1968091219605A6812125A6088B2F6
:1014B000186090B25860084B19805A80074B18800A
:1014C00001221021014801F01FF838BD0000024040
:1014D000F4060020E8060020E4060020FE060020B6
:1014E00038B5A1221249134800F002FA012404E0A1
:1014F0000021104800F005FA0134A12CF8DD4FF46A
:10150000FA6000F065FC00240EE0E5000A4901EBFA
:10151000C4010022094BD1E90001FFF7ABFB084BE6
:101520002B44C3E900010134A02CEEDD38BD00BF1F
:10153000080C0020900E002058A100080000F04088
:10154000000700202DE9F0470546404C204600F0FA
:10155000EBF92946204600F0D4F9A66823688BB33E
:10156000E768B74230DA4FF0A00A002400254AE0CD
:10157000364B5A68364B03EBCA03D3E9008952F85D
:101580002600FFF723F842464B46FFF773FB02465F
:101590000B4620462946FEF7CDFE04460D460AF1CD
:1015A000FF3A0136B742E3DA00222A4B20462946A9
:1015B000FFF760FBFFF774F801B2274B198027484B
:1015C00002F07EFBBDE8F0874FF0A00A0024002562
:1015D000E8E71E4B5A681E4B03EBCA03D3E90089A8
:1015E00052F82600FEF7F2FF42464B46FFF742FB59
:1015F00002460B4620462946FEF79CFE04460D4651
:101600000AF1FF3A0136114B1B69B342E1DC0026B7
:1016100019E00E4B5A680E4B03EBCA03D3E900895D
:1016200052F82600FEF7D2FF42464B46FFF722FB58
:1016300002460B4620462946FEF77CFE04460D4630
:101640000AF1FF3A0136B742E3DAADE7900E002027
:1016500058A10008000010408C0E0020AC9F00082C
:101660002DE9F0410446104B1880104F3E68861B50
:10167000DFF83C80D8F80000FFF7F4F80D4B19684C
:10168000FEF79EFD05463046FFF7ECF82946FFF7CA
:1016900035F8FFF73BF9084B1860084B1880C8F87D
:1016A00000003C60BDE8F081AC0E0020B40E0020CC
:1016B000B00E002000000020A80E0020A40E002084
:1016C00010B582B0002401940D4B1A6B42F48002D5
:1016D0001A631B6B03F480030193019B224621468E
:1016E0003A2000F0CFFB3A2000F0DCFB22462146F6
:1016F000462000F0C7FB462000F0D4FB02B010BD2E
:10170000003802402DE9F0418AB000240594069487
:101710000794089409940194324B1A6B42F020020A
:101720001A631A6B02F020020192019A02941A6B5A
:1017300042F080021A631A6B02F080020292029A4F
:1017400003941A6B42F001021A631A6B02F0010251
:101750000392039A04941A6B42F004021A631B6BFF
:1017600003F004030493049BDFF87C8022464FF4CB
:101770000071404600F0C8FE1C4E22463021304623
:1017800000F0C2FE01224021304600F0BDFE4FF4C1
:10179000007305930125069507940227089705A96C
:1017A000404600F0B7FD702305930695079408970F
:1017B00005A9304600F0AEFD802305934FF40413D5
:1017C0000693079505A90A4800F0A4FD224629467C
:1017D000172000F057FB172000F064FB0AB0BDE8AB
:1017E000F08100BF003802400014024000000240B7
:1017F00000080240802800D0704708B5FFF716FEA9
:10180000044B1888FFF72CFF034BB3F90000FFF7D8
:1018100099FE08BDFE060020A40E002072B6704797
:1018200000B595B03022002108A802F0F9FA002393
:10183000039304930593069307930193214A116C34
:1018400041F080511164126C02F080520192019AB1
:1018500002931D4B1A6842F480421A601B6803F41D
:1018600080430293029B012308934FF48033099332
:1018700002220E924FF480030F9304231093A821A9
:1018800011911292139308A800F052FE98B90F23F9
:10189000039302230493002305934FF4A05306936C
:1018A0004FF480530793052103A801F0ABF828B942
:1018B00015B05DF804FBFFF7B1FFE8E7FFF7AEFFF7
:1018C000F6E700BF003802400070004008B500F0A5
:1018D00053FAFFF7A5FFFFF715FFFFF7F1FE00F042
:1018E0003FF800F04DF9FFF7FBFDFFF719FDFEE7AC
:1018F000026141600023036083604FF0FF33C360E7
:1019000070470368026993420DD0C3680133C36016
:1019100093FBF2FC02FB1C33C360426842F82310C5
:1019200003680133036070470268B2B110B4034624
:101930004268816852F82100002442F821409A68E8
:1019400001329A60196992FBF1FC01FB1C229A603A
:101950001A68013A1A6010BC70474FF0FF307047A8
:1019600008B50E480E4B03604FF4827343600023AA
:101970008360C3600361012242614FF4007282619F
:101980002022C2610362436283620A23C36201F0C0
:10199000A7F900B908BDFFF741FFFBE7B80E00202B
:1019A000003C004030B589B00023039304930593B5
:1019B000069307930268194B9A4201D009B030BDD3
:1019C0000024019403F5FE331A6C42F400421A64B9
:1019D0001A6C02F400420192019A02941A6B42F0CE
:1019E00004021A631B6B03F004030293029B4FF47F
:1019F000E0530393022504950323069306230793DC
:101A000003A9074800F086FC22462946332000F04F
:101A100039FA332000F046FAD0E700BF003C00401E
:101A20000008024082B0002100910B4B5A6C42F436
:101A300080425A645A6C02F480420092009A0191EA
:101A40001A6C42F080521A641B6C03F080530193AD
:101A5000019B02B0704700BF00380240FEE7FEE77E
:101A6000FEE7FEE7FEE770477047704708B500F0F5
:101A70009DF908BD08B5802000F04CFD08BD0000B0
:101A800008B5024801F090FD08BD00BFD40F00204A
:101A900008B5024801F0A0FA08BD00BFB80E00204A
:101AA00008B5024800F048FB08BD00BF740F0020D5
:101AB00008B5024800F040FB08BD00BF140F00202D
:101AC0000120704708B502F051FA162303604FF069
:101AD000FF3008BD08B54FF0FF31FFF7F3FFFEE719
:101AE00070B50C461646002506E0AFF3008021468F
:101AF00001F8010B01350C46B542F6DB304670BDEE
:101B000070B50C461646002504E014F8010B00F0F1
:101B1000D3F80135B542F8DB304670BD4FF0FF30E9
:101B200070474FF400534B6000207047012070470E
:101B30000020704710B503460C4A0D490D48006857
:101B400040B10C4800680344521A934206D8094A2F
:101B5000136010BD0748084C0460F2E702F006FA73
:101B60000C2303604FF0FF30F3E700BF00000220BA
:101B700000040000100F0020301300207047000008
:101B800008B50A480A4B03604FF4E1334360002371
:101B90008360C36003610C2242618361C36101F011
:101BA000DDFB00B908BDFFF739FEFBE7D40F0020CD
:101BB0000010014030B589B00023039304930593CE
:101BC00006930793026803F1804303F588339A4232
:101BD00001D009B030BD04460025019503F59433CA
:101BE0005A6C42F010025A645A6C02F010020192D0
:101BF000019A02951A6B42F001021A631B6B03F003
:101C000001030293029B4FF4C063039302230493E6
:101C1000032306930723079303A9224800F07AFBC6
:101C20002148224B03604FF0006343608560C5602C
:101C30004FF48063036145618561C5614FF4803372
:101C40000362456200F0B4F928BB174BA3639C63A1
:101C50001748184B03604FF00063436040238360D4
:101C60000023C3604FF48062026143618361C361FA
:101C70004FF480320262436200F09AF970B90C4B63
:101C800063639C6300221146252000F0FBF82520A9
:101C900000F008F99DE7FFF7C1FDD6E7FFF7BEFDAD
:101CA000EDE700BF00000240740F002040640240D6
:101CB000140F0020B864024000B583B001904FF6C5
:101CC000FF73012201A9034801F077FB019803B0DB
:101CD0005DF804FBD40F0020DFF834D00D480E4926
:101CE0000E4A002302E0D458C4500433C4188C4276
:101CF000F9D30B4A0B4C002301E013600432A242DB
:101D0000FBD3FFF73BFF02F037F9FFF7DFFD70472A
:101D10000000022000000020C4060020D8A800080F
:101D2000C806002030130020FEE7000010B504466E
:101D30000E4B1A784FF47A73B3FBF2F30C4A106827
:101D4000B0FBF3F000F0BCF868B90F2C01D901200A
:101D50000AE0002221464FF0FF3000F093F8054BD7
:101D60001C60002000E0012010BD00BF0800002022
:101D7000040000200C00002008B50B4B1A6842F448
:101D800000721A601A6842F480621A601A6842F49B
:101D900080721A60032000F063F80F20FFF7C6FF7F
:101DA000FFF740FE002008BD003C0240034A1168D6
:101DB000034B1B780B441360704700BF18100020C2
:101DC00008000020014B1868704700BF1810002061
:101DD00038B50446FFF7F6FF0546B4F1FF3F02D0E1
:101DE000044B1B781C44FFF7EDFF401BA042FAD3C5
:101DF00038BD00BF08000020002808DB0901C9B277
:101E000000F1604000F5614080F80013704700F079
:101E10000F000901C9B2014B1954704714ED00E0DD
:101E200000B500F00700C0F1070CBCF1040F28BF9B
:101E30004FF0040C031D062B0FD9C31E4FF0FF3EBD
:101E40000EFA0CF021EA000199400EFA03FE22EA94
:101E50000E0241EA02005DF804FB0023EEE70000F9
:101E6000074AD36823F4E0631B041B0C000200F450
:101E7000E060034343F0BF6343F40033D360704733
:101E800000ED00E010B50446054BD868C0F3022011
:101E9000FFF7C6FF01462046FFF7AEFF10BD00BFAB
:101EA00000ED00E0002807DB00F01F0240090123DD
:101EB0009340024A42F82030704700BF00E100E042
:101EC0000138B0F1807F0BD24FF0E0235861054A12
:101ED000F02182F823100020986107221A617047D0
:101EE0000120704700ED00E010B40368D9B210394A
:101EF000094AA2FB01421209084CA25CC2655F2993
:101F000006D96FF3090304338365806D10BC7047F5
:101F10006FF309038365F8E7ABAAAAAA78A60008BD
:101F2000836A826992B9012B0AD0022B02D00BB1CD
:101F300000207047C36A13F0807F28D100207047CB
:101F4000C36AB3F1C07F24D000207047B2F5005FB0
:101F500009D0022B25D9032B25D1C36A13F0807F2A
:101F600023D100207047032B03D8DFE803F01404CB
:101F7000140A00207047C36A13F0807F0DD100203F
:101F80007047C36AB3F1C07F09D0002070470120B9
:101F900070470120704701207047012070470120E1
:101FA00070470120704700207047012070470000F3
:101FB00070B50446FFF706FF002C5BD005460223F0
:101FC00084F83530002384F834302268136823F015
:101FD0000103136023681A6812F0010F0AD0FFF79B
:101FE000F1FE431B052BF5D920236365032084F8FC
:101FF000350070BD1A68204911406268A06802432C
:10200000E06802432069024360690243A069024319
:10201000E0690243206A02430A43616A04291ED030
:102020001A602668756925F00705636A1D43042B4D
:1020300007D1A36A1D43E36A1BB12046FFF770FF77
:1020400090B975612046FFF74FFFE26D3F23934043
:10205000836000206065012384F83530C9E7E16AB8
:10206000206B01430A43DBE740236365012084F8CA
:102070003500BEE70120BCE73F8010F070B5044694
:10208000866DFFF79FFE94F83530DBB2022B06D049
:1020900080236365002384F83430012070BD054639
:1020A0002268136823F0160313602268536923F033
:1020B00080035361236CE3B12268136823F00803A3
:1020C00013602268136823F00103136023681B6800
:1020D00013F0010F11D0FFF775FE431B052BF5D947
:1020E00020236365032084F83500002384F834300E
:1020F000D4E7A36C002BDFD1E3E7E26D3F239340ED
:10210000B360012384F83530002084F83400C5E73B
:1021100090F83530DBB2022B03D0802343650120D9
:102120007047052380F835300268136823F00103F7
:102130001360002070470000F0B583B00446002310
:102140000193724B1D68724BA3FB0535AD0A876D79
:102150003E68C26D08239340334210D003681A686A
:1021600012F0040F0BD01A6822F004021A60C26D3C
:1021700008239340BB60436D43F001034365E26D68
:1021800001239340334209D02268526912F0800F34
:1021900004D0BB60636D43F002036365E26D04230A
:1021A0009340334209D02268126812F0020F04D023
:1021B000BB60636D43F004036365E26D10239340DD
:1021C000334224D02268126812F0080F1FD0BB607F
:1021D00023681A6812F4802F0DD01B6813F4002FA7
:1021E00004D1236C9BB12046984710E0A36C73B1D7
:1021F000204698470BE01A6812F4807F03D11A68D2
:1022000022F008021A60236C0BB120469847E26D59
:1022100020239340334255D02268126812F0100FE9
:1022200050D0BB6094F83530DBB2052B0ED023685C
:102230001A6812F4802F33D01B6813F4002F2AD1B0
:10224000636C002B3ED0204698473BE02268136821
:1022500023F0160313602268536923F0800353614F
:10226000236CA3B12268136823F008031360E26DA6
:102270003F239340BB60012384F83530002384F86A
:102280003430236D002B3FD0204698473CE0A36CB0
:10229000002BE7D1EBE7E36BA3B12046984711E0B1
:1022A0001A6812F4807F09D11A6822F010021A60AD
:1022B000012384F83530002384F83430E36B0BB10C
:1022C00020469847636DFBB1636D13F0010F17D083
:1022D000052384F835302268136823F00103136066
:1022E000019B01330193AB4204D823681B6813F0B0
:1022F000010FF5D1012384F83530002384F8343000
:10230000E36C0BB12046984703B0F0BD04000020F9
:10231000B5814E1B00230F2B00F2EC8030B583B04B
:1023200068E085684FEA430E032404FA0EF425EAB8
:102330000405CC6804FA0EF42C438460446824EA53
:1023400002044A68C2F300129A40224342605FE0EE
:10235000DC08083450F8242003F00705AD004FF0E6
:102360000F0E0EFA05FE22EA0E0E0A69AA4042EA94
:102370000E0240F824205FE0072200E0002202FA6B
:102380000EF22A4302345C4D45F824205B4A9468DF
:102390006FEA0C0224EA0C05D1F804E01EF4801F59
:1023A00001D04CEA0405554CA560E46802EA040536
:1023B000D1F804E01EF4001F01D04CEA04054F4C94
:1023C000E560646802EA0405D1F804E01EF4003F09
:1023D00001D04CEA0405494C6560246822404D68F0
:1023E00015F4803F01D04CEA0402444C22600133D2
:1023F0000F2B7DD801229A400C6804EA020C32EAC5
:102400000404F4D14C6804F00304013C012C88D985
:102410004A6802F00302032A09D0C4685D0003225F
:10242000AA4024EA02048A68AA402243C2604A6899
:1024300002F00302022A8BD004684FEA430E032203
:1024400002FA0EF224EA02044A6802F0030202FAD7
:102450000EF2224302604A6812F4403FC7D00022C5
:102460000192274A546C44F480445464526C02F440
:1024700080420192019A9C08A51C1F4A52F82550DF
:1024800003F0030E4FEA8E0E0F2202FA0EF225EA37
:1024900002051C4A90423FF471AF02F580629042FF
:1024A0001AD002F58062904218D002F58062904204
:1024B00016D002F58062904214D002F580629042FC
:1024C00012D002F58062904210D002F580629042F4
:1024D0003FF452AF082252E7012250E702224EE7B2
:1024E00003224CE704224AE7052248E7062246E792
:1024F00003B030BD704700BF00380140003C0140D0
:1025000000380240000002400AB1816170470904AE
:102510008161704708B5054B5B69034200D108BD76
:10252000024B5861FFF766F9F9E700BF003C014034
:10253000002800F0E08170B582B00446036813F013
:10254000010F3BD09F4B9B6803F00C03042B2CD056
:102550009C4B9B6803F00C03082B21D06368B3F5F8
:10256000803F4FD0B3F5A02F52D0964B1A6822F47B
:1025700080321A601A6822F480221A606368002B85
:1025800050D0FFF71FFC05468E4B1B6813F4003F2D
:1025900014D1FFF717FC401B6428F5D90320B1E1E3
:1025A000884B5B6813F4800FD8D0864B1B6813F4FC
:1025B000003F03D06368002B00F09F81236813F075
:1025C000020F54D07F4B9B6813F00C0F3ED07D4B15
:1025D0009B6803F00C03082B33D0E368002B68D012
:1025E000794B01221A60FFF7EDFB0546754B1B681E
:1025F00013F0020F54D1FFF7E5FB401B0228F5D979
:1026000003207FE16F4A136843F480331360B5E71A
:102610006C4B1A6842F480221A601A6842F48032C5
:102620001A60ABE7FFF7CEFB0546664B1B6813F459
:10263000003FC3D0FFF7C6FB401B6428F5D9032039
:1026400060E1604B5B6813F4800FC6D15D4B1B6883
:1026500013F0020F03D0E368012B40F05081594A78
:10266000136823F0F803216943EAC1031360236868
:1026700013F0080F42D063696BB3534B0122C3F8C8
:10268000802EFFF79FFB05464E4B5B6F13F0020F4A
:1026900034D1FFF797FB401B0228F5D9032031E125
:1026A000484A136823F0F803216943EAC103136021
:1026B000DDE7454B00221A60FFF784FB0546414BDE
:1026C0001B6813F0020FD2D0FFF77CFB401B0228DF
:1026D000F5D9032016E13C4B0022C3F8802EFFF70A
:1026E00071FB0546374B5B6F13F0020F06D0FFF707
:1026F00069FB401B0228F5D9032003E1236813F08E
:10270000040F77D02F4B1B6C13F0805F33D1002365
:1027100001932C4B1A6C42F080521A641B6C03F02C
:1027200080530193019B0125284B1B6813F4807F84
:1027300023D0A368012B34D0052B38D0214B1A6F3E
:1027400022F001021A671A6F22F004021A67A368C6
:10275000002B3DD0FFF736FB06461A4B1B6F13F0DC
:10276000020F46D1FFF72EFB801B41F288339842BF
:10277000F3D90320C6E00025D6E7144A136843F4D2
:1027800080731360FFF71EFB0646104B1B6813F4A3
:10279000807FCED1FFF716FB801B0228F5D90320DE
:1027A000B0E0084A136F43F001031367CFE7054B0E
:1027B0001A6F42F004021A671A6F42F001021A6798
:1027C000C5E700BF003802400000474200700040EB
:1027D000FFF7F8FA0646524B1B6F13F0020F08D0B2
:1027E000FFF7F0FA801B41F288339842F3D90320B7
:1027F00088E0EDB9A369002B00F08380484A926815
:1028000002F00C02082A51D0022B17D0454B0022AF
:102810001A66FFF7D7FA0446414B1B6813F0007F96
:1028200042D0FFF7CFFA001B0228F5D9032069E058
:102830003B4A136C23F080531364DBE7394B0022CF
:102840001A66FFF7BFFA0546354B1B6813F0007F89
:1028500006D0FFF7B7FA401B0228F5D9032051E054
:10286000E369226A1343626A43EA8213A26A520846
:10287000013A43EA0243E26A43EA0263284A5360A8
:10288000284B01221A66FFF79DFA0446244B1B6869
:1028900013F0007F06D1FFF795FA001B0228F5D947
:1028A00003202FE000202DE000202BE0012B2BD077
:1028B0001B4B5B6803F48001E269914226D103F06F
:1028C0003F02216A8A4223D1616A47F6C0721A40E8
:1028D000B2EB811F1ED103F44031A26A5208013AC3
:1028E000B1EB024F18D103F07063E26AB3EB026FF1
:1028F00014D1002006E001207047012002E00120F1
:1029000000E0002002B070BD0120FBE70120F9E7E4
:102910000120F7E70120F5E70120F3E70120F1E7C7
:10292000003802400000474208B5334B9B6803F073
:102930000C03042B5BD0082B5BD12F4B5A6802F0A1
:102940003F025B6813F4800F2CD02B4B5868C0F308
:1029500088104FEA401CBCEB000C6EEB0E0E4FEAE9
:102960008E1343EA9C634FEA8C11B1EB0C0163EBCD
:102970000E03DB0043EA5173C90011EB000C43F175
:102980000003590200234FEA4C2041EADC51FDF7D5
:10299000E3FF194B5B68C3F3014301335B00B0FBFA
:1029A000F3F008BD144B5868C0F388104FEA401C80
:1029B000BCEB000C6EEB0E0E4FEA8E1343EA9C63E9
:1029C0004FEA8C11B1EB0C0163EB0E03DB0043EA21
:1029D0005173C90011EB000C43F10003990200236D
:1029E0004FEA8C2041EA9C51FDF7B6FFD1E703483E
:1029F000D7E70348D5E700BF0038024000127A004D
:102A00000024F400002800F09B8070B50D460446B9
:102A10004F4B1B6803F007038B4208D2CBB24C4AE2
:102A20001370136803F007038B4240F08B80236818
:102A300013F0020F17D013F0040F04D0454A936827
:102A400043F4E0539360236813F0080F04D0414A25
:102A5000936843F4604393603E4A936823F0F00325
:102A6000A1680B439360236813F0010F32D06368B1
:102A7000012B21D09A1E012A25D9364A126812F05C
:102A8000020F61D033498A6822F0030213438B603E
:102A9000FFF798F906462F4B9B6803F00C0362681A
:102AA000B3EB820F16D0FFF78DF9801B41F288330C
:102AB0009842F0D9032042E0264A126812F4003FFF
:102AC000E0D101203BE0234A126812F0007FD9D107
:102AD000012034E01E4B1B6803F00703AB4207D90B
:102AE000EAB21B4B1A701B6803F00703AB422DD1EF
:102AF000236813F0040F06D0164A936823F4E053BA
:102B0000E1680B439360236813F0080F07D0114A64
:102B1000936823F46043216943EAC1039360FFF79C
:102B200003FF0C4B9B68C3F303130B4AD35CD840E1
:102B30000A4B18600A4B1868FFF7F8F8002070BDC0
:102B4000012070470120FAE70120F8E70120F6E7AD
:102B5000003C02400038024068A600080400002043
:102B60000C000020014B1868704700BF04000020D3
:102B700008B5FFF7F7FF044B9B68C3F38223034AB2
:102B8000D35CD84008BD00BF0038024060A60008F2
:102B900008B5FFF7E7FF044B9B68C3F34233034AD2
:102BA000D35CD84008BD00BF0038024060A60008D2
:102BB0002DE9F04782B00546884617461E46FFF7C6
:102BC00001F90A9B1B1A03EB0609FFF7FBF8824683
:102BD000284B1B68C3F3CB3309FB03F301932B682A
:102BE0009C6838EA04040CBF01230023BB423DD09B
:102BF000B6F1FF3FF3D0FFF7E5F8A0EB0A00484538
:102C000007D2019A02B14A46019B013B01939146CA
:102C1000E5E72A68536823F0E00353606B68B3F577
:102C2000827F0BD0AB6AB3F5005F14D0012385F827
:102C30005130002385F85030032018E0AB68B3F51D
:102C4000004F02D0B3F5806FECD12A68136823F0EF
:102C500040031360E6E72A68136823F40053136007
:102C60002A68136843F400531360DFE7002002B0C2
:102C7000BDE8F0870400002010B584B00446164B70
:102C80001868164BA3FB0030400D4FF47A7303FB1A
:102C900000F003906368B3F5827F0BD0039BBBB158
:102CA000039B013B039323689B6813F0800FF5D1CE
:102CB00000200EE000920B46002280212046FFF704
:102CC00077FF30B1636D43F020036365032000E0BC
:102CD000002004B010BD00BF04000020819F5E16DC
:102CE00000285AD010B50446436A33B94368B3F597
:102CF000827F05D00023C36102E0002303614361AA
:102D00000023A36294F85130002B40D0022384F8B2
:102D100051302268136823F040031360636803F4A2
:102D20008273A26802F404421343E26802F4006270
:102D30001343226902F002021343626902F00102A6
:102D40001343A26902F400721343E26902F03802ED
:102D50001343226A02F080021343A26A02F4005273
:102D6000216813430B60638B03F00403626A02F073
:102D70001002216813434B602268D36923F4006377
:102D8000D36100206065012384F8513010BD84F8C0
:102D900050302046FEF706FEB8E7012070472DE9C7
:102DA000F04383B01F460A9D90F85030012B00F08D
:102DB0001081044688469146012380F85030FFF781
:102DC00001F8064694F85130DBB26268012B0AD054
:102DD000B2F5827F40F0E380A268002A40F0E980EB
:102DE000042B40F0E880B8F1000F00F0E680B9F164
:102DF000000F00F0E480002F00F0E38094F85130E1
:102E0000DBB2042B02D0052384F851300023636524
:102E1000C4F83890E787A787C4F83080E786A7868C
:102E20002364636423681A6812F0400F03D11A68A0
:102E300042F040021A60E368B3F5006F11D0636896
:102E40000BB1012F0BD1226B236812781A73236BFD
:102E500001332363E38E9BB2013B9BB2E3860127E0
:102E60006BE063680BB1012F0BD1226B23681288D2
:102E7000DA60236B02332363E38E9BB2013B9BB288
:102E8000E38601271CE023689A6812F0010F0ED038
:102E9000E28F92B25AB1DA68A36B1A80A36B023345
:102EA000A363E38F9BB2013B9BB2E3870127FEF74D
:102EB00089FF801BA84203D3B5F1FF3F40F0838018
:102EC000E38E9BB21BB9E38F9BB2002B53D02368D8
:102ED0009A6812F0020FD6D0E28E92B2002AD2D0B7
:102EE000002FD0D0226B1288DA60236B0233236369
:102EF000E38E9BB2013B9BB2E3860027C3E72368C6
:102F00009A6812F0010F0ED0E28F92B25AB1DA68CD
:102F1000A36B1A70A36B0133A363E38F9BB2013BD6
:102F20009BB2E3870127FEF74DFF831BAB4202D321
:102F3000B5F1FF3F49D1002D49D0E38E9BB213B9C3
:102F4000E38F9BB2BBB123689A6812F0020FD6D010
:102F5000E28E92B2002AD2D0002FD0D0226B12780B
:102F60001A73236B01332363E38E9BB2013B9BB245
:102F7000E3860027C3E7324629462046FFF77CFE5A
:102F800048B9A36863B901932368DA6801929B6822
:102F90000193019B04E020236365012000E00220EF
:102FA000012384F85130002384F8503003B0BDE889
:102FB000F0830220F4E70220F2E70120F0E701208D
:102FC000EEE70120ECE70320EAE70320E8E703202F
:102FD000E6E70220EAE7704730B585B004460268AC
:102FE00051689368C3F3801013F0400F05D113F0BC
:102FF000010F02D011F0400F69D113F0020F02D07F
:1030000011F0800F67D1C3F3401513F0200F03D1E7
:1030100010B913F4807F61D011F0200F5ED078B129
:1030200094F85100C0B203285AD0606D40F00400FB
:10303000606500200090D068009090680090009833
:1030400065B1606D40F001006065002002909068FD
:103050000290106820F040001060029A13F4807F04
:1030600009D0636D43F0080363650023039323686D
:103070009B680393039B636D002B2FD022685368DA
:1030800023F0E0035360012384F8513011F0030F63
:103090002ED02268536823F003035360E36C4BB1D6
:1030A000154A1A65E06CFFF733F818B1636D43F009
:1030B00040036365A36C8BB10F4A1A65A06CFFF7E0
:1030C00027F858B1636D43F04003636506E0236C55
:1030D0002046984702E0636C2046984705B030BD13
:1030E00000230193D368019393680193019BF5E753
:1030F0002046FFF770FFF1E7FD30000808B5806B50
:103100000023C387C386FFF766FF08BD026802F18C
:103110000C0353E8003F23F490730C3242E8003173
:103120000029F3D1026802F1140353E8003F23F0B1
:103130000103143242E800310029F3D1036B012B63
:1031400005D0202380F83E300023036370470268D7
:1031500002F10C0353E8003F23F010030C3242E865
:1031600000310029F3D1ECE790F83D30DBB2212BA0
:1031700001D0022070478368B3F5805F17D0036ADF
:103180005A1C02621A7803685A60C38C9BB2013BD6
:103190009BB2C3844BB90268D36823F08003D36029
:1031A0000268D36843F04003D3600020704703698E
:1031B000002BE4D1036A1B880268C3F30803536041
:1031C000036A02330362E0E710B50446026813693C
:1031D00023F44053C1680B431361836802691A43A7
:1031E00043691A43C3691A430168CB6823F4164341
:1031F00023F00C031343CB600268536923F440733C
:1032000081690B4353610368314A934206D002F54A
:103210008062934202D0FFF7ABFC01E0FFF7B8FCFD
:10322000E369B3F5004F29D00021031849411B1869
:1032300041F10001C90041EA5371DB0018186368CD
:103240004FEA83024FEA937341F10001FDF784FBDB
:10325000204AA2FB00314909642303FB11031B012F
:103260003233A2FB03235B0903F0F00202EB0112ED
:1032700003F00F03216813448B6010BD0023021874
:1032800043EB0301121841F10001C90041EA5271F8
:10329000D200101841F10001626892185B41FDF7FD
:1032A0005BFB0C4AA2FB00314909642303FB1103B9
:1032B000DB003233A2FB03235B095A0002F4F872ED
:1032C00002EB011203F00703216813448B60D4E77B
:1032D000001001401F85EB512DE9F84305460F46CC
:1032E00016469946DDF820802B681C6837EA0404EE
:1032F0000CBF01240024B4422DD1B8F1FF3FF3D01C
:10330000B8F1000F05D0FEF75DFDA0EB09004045C8
:10331000EAD92A6802F10C0353E8003F23F4D07382
:103320000C3242E800310029F3D12A6802F114037B
:1033300053E8003F23F00103143242E80031002932
:10334000F3D1202385F83D3085F83E30002385F801
:103350003C30032000E00020BDE8F88358B310B5EE
:10336000044690F83D300BB3242384F83D302268A6
:10337000D36823F40053D3602046FFF725FF22686B
:10338000136923F4904313612268536923F02A03DD
:1033900053612268D36843F40053D3600020206453
:1033A000202384F83D3084F83E3010BD80F83C3056
:1033B000FEF700FCD8E7012070472DE9F04182B00C
:1033C0001E4690F83D30DBB2202B54D104460D460A
:1033D0009046002953D0002A53D090F83C30012B5E
:1033E00051D0012380F83C3000230364212380F86E
:1033F0003D30FEF7E7FC0746A4F82480A4F82680B9
:10340000A368B3F5805F05D04FF00008002384F86F
:103410003C3012E0236913B14FF00008F6E7A846EC
:103420000025F3E738F8023B2268C3F30803536032
:10343000E28C92B2013A92B2E284E38C9BB273B115
:1034400000963B46002280212046FFF745FFE0B969
:10345000002DE7D015F8012B23685A60E8E70096A5
:103460003B46002240212046FFF736FF78B9202353
:1034700084F83D3000E0022002B0BDE8F081012078
:10348000FAE70120F8E70220F6E70320F4E703203B
:10349000F2E7704708B50168CA6822F04002CA60C6
:1034A000202280F83D20FFF7F4FF002008BD704780
:1034B000704708B5806B0023C385C384FFF7F8FF0E
:1034C00008BD704790F83E30DBB2222B67D183688D
:1034D000B3F5805F4DD0826AB3F5805F04D0002BD6
:1034E00054D10369002B51D103685B681370836A60
:1034F00001338362C38D9BB2013B9BB2C385002B1A
:103500004FD100B583B00268D36823F02003D360A5
:103510000268D36823F48073D3600268536923F090
:1035200001035361202380F83E30036B012B33D11C
:1035300000230363026802F10C0353E8003F23F009
:1035400010030C3242E800310029F3D103681A68F5
:1035500012F0100F06D0002201921A6801925B68E7
:103560000193019B818DFFF7ACFF002003B05DF854
:1035700004FB0269002AAED1826A03685B68C3F368
:1035800008031380836A02338362B3E703685B68CE
:1035900003F07F031370AAE7FFF789FFE5E7022036
:1035A000704700207047000010B582B004460268E2
:1035B0001368D068516913F00F0F09D113F0200F71
:1035C0000CD010F0200F09D02046FFF77BFF16E04B
:1035D00011F0010115D110F4907F12D1216B012956
:1035E00079D013F0800F03D010F0800F40F01081DD
:1035F00013F0400F03D010F0400F40F00D8102B0E7
:1036000010BD13F0010F06D010F4807F03D0226CA0
:1036100042F00102226413F0040F04D019B1226CAD
:1036200042F00202226413F0020F04D019B1226C9E
:1036300042F00402226413F0080F07D010F0200FAC
:1036400000D119B1226C42F008022264226C002AD7
:10365000D5D013F0200F02D010F0200F29D123680D
:103660005B6903F04003226C12F0080F00D163B3D2
:103670002046FFF74BFD23685B6913F0400F20D015
:10368000226802F1140353E8003F23F04003143290
:1036900042E800310029F3D1A36B73B1604A1A6587
:1036A000A06BFEF735FD0028A9D0A06B036D9847ED
:1036B000A5E72046FFF706FFD1E72046FFF7F8FE13
:1036C0009DE72046FFF7F4FE99E72046FFF7F0FE5E
:1036D0000023236493E713F0100F82D010F0100F33
:1036E0003FF47FAF00230193136801935368019364
:1036F000019B536913F0400F50D0A26B13685B68B5
:103700009BB2002B3FF47BAFA18D99427FF677AF40
:10371000E385D369B3F5807F37D0226802F10C03CB
:1037200053E8003F23F480730C3242E80031002953
:10373000F3D1226802F1140353E8003F23F00103A0
:10374000143242E800310029F3D1226802F1140357
:1037500053E8003F23F04003143242E800310029CF
:10376000F3D1202384F83E3000232363226802F142
:103770000C0353E8003F23F010030C3242E8003101
:103780000029F3D1A06BFEF779FCA18DE38D9BB2EC
:10379000C91A89B22046FFF794FE30E7A18DE38D68
:1037A0009BB2C91A89B2E38D9BB2002B3FF427AFBD
:1037B00000293FF424AF226802F10C0353E8003FD4
:1037C00023F490730C3242E800300028F3D12268D1
:1037D00002F1140353E8003F23F00103143242E8DE
:1037E00000300028F3D1202384F83E3000232363E7
:1037F000226802F10C0353E8003F23F010030C325F
:1038000042E800300028F3D12046FFF75AFEF6E6E2
:103810002046FFF7A9FCF2E62046FFF73BFEEEE666
:10382000B33400082DE9F047089D0E4604460F46C4
:10383000002B4AD194468C45B2FA82F260D942B14B
:10384000C2F12003974020FA03F30CFA02FC1F4355
:1038500094404FEA1C4E1FFA8CF6B7FBFEF1230C86
:103860000EFB117743EA074301FB06F098420AD9A1
:103870001CEB030301F1FF3780F01581984240F201
:103880001281023963441B1AA4B2B3FBFEF00EFB93
:10389000103344EA034400FB06F6A6420AD91CEBA7
:1038A000040400F1FF3380F00081A64240F2FD8065
:1038B0006444023840EA0140A41B00211DB1D440F9
:1038C0000023C5E90043BDE8F0878B4205D90DB15F
:1038D000C5E9000100210846F5E7B3FA83F10029A4
:1038E00046D1B34202D3824200F2F580841A66EBDD
:1038F000030201201746002DE5D0C5E90047E2E7A5
:10390000002A40F09380A1EB0C034FEA1C471FFAFA
:103910008CFE0121B3FBF7F607FB1630230C43EABC
:1039200000430EFB06F0984208D91CEB030306F196
:10393000FF3802D2984200F2D08046461B1AA4B249
:10394000B3FBF7F007FB103344EA03440EFB00FE21
:10395000A64508D91CEB040400F1FF3302D2A645AA
:1039600000F2B6801846A4EB0E0440EA0640A5E734
:10397000C1F120078B4022FA07FC4CEA030C06FA3F
:1039800001FE20FA07F426FA07F344EA0E0400FACF
:1039900001F84FEA1C404FEA1449B3FBF0FE1FFA4E
:1039A0008CF600FB1E3349EA03430EFB06F99945EA
:1039B00002FA01F20BD91CEB03030EF1FF3A80F07F
:1039C0008580994540F28280AEF1020E6344A3EBFC
:1039D0000909A4B2B9FBF0F300FB139944EA0944C6
:1039E00003FB06F6A64208D91CEB040403F1FF30E2
:1039F00068D2A64266D9023B644443EA0E40A41B47
:103A0000A0FB02E6B4427346B14652D34FD05DB13B
:103A1000B8EB030264EB090404FA07F722FA01F396
:103A20001F43CC40C5E9007400214CE7C2F12001DE
:103A300020FA01F30CFA02FC26FA01F19640334316
:103A40004FEA1C471FFA8CFEB1FBF7F007FB10167C
:103A5000190C41EA064100FB0EF68E4204FA02F40C
:103A600008D91CEB010100F1FF382DD28E422BD971
:103A700002386144891B9BB2B1FBF7F607FB1611B4
:103A800043EA014306FB0EF1994208D91CEB0303FC
:103A900006F1FF3814D2994212D9023E63445B1AF0
:103AA00046EA004136E73946EDE6184602E7F045BA
:103AB000ADD2BEEB020366EB0C060138B146A6E7B9
:103AC0004646ECE7034698E74046D3E7D6467EE70E
:103AD0006444023847E708460DE7023E63442DE799
:103AE000024A0349034800F0C9B800BF1000002093
:103AF000ED750008200000200C4B4168994210B57C
:103B0000044601D003F072FDA168094B994202D02E
:103B1000204603F06BFDE168064B994204D0204635
:103B2000BDE8104003F062BD10BD00BF1C100020B6
:103B300084100020EC1000202DE9F843314A324C6B
:103B40003249DFF8CC90DFF8CC80334F116000258C
:103B500004232946082204F15C00C4E903352F4EF2
:103B6000A560C4E90055C4E90555656600F058F93B
:103B700004F15800C4E90749C4E90987E66200F086
:103B800023FA2946264B6367082204F1C400C4E9DE
:103B90001A55C4E91E552567C4F8CC50C4F88050A6
:103BA00000F03EF904F1680304F1C000C4F8843069
:103BB000C4E92298C4E9247600F006FA194BC4F847
:103BC000DC30294604F596700822C4E93455C4E96E
:103BD0003855C4F8D850C4F83451C4F8E85000F04F
:103BE0001FF904F1D003C4E93D87C4F8F09004F54F
:103BF0009470C4F8FC60C4F8EC30BDE8F84300F001
:103C0000E3B900BF541100201C100020E13A000865
:103C1000913D0008B53D0008F53D0008193E00083B
:103C2000090001001200020010B504460A4800F025
:103C3000CFF9636B23B9094B094A1B68626323B14F
:103C4000BDE81040044800F0C5B9FFF775FFBDE8B6
:103C50001040014800F0BEB964110020541100204A
:103C6000F93A0008014800F0B3B900BF6411002020
:103C7000014800F0AFB900BF641100202DE9F843FE
:103C80000746884616464FF00009D6E90154013D23
:103C900010D4A389012B08D9B4F90E300133214681
:103CA000384602D0C04749EA0009013D6B1C04F1C7
:103CB0006804EED13668002EE7D14846BDE8F883A7
:103CC0000FB400B5074983B004AB086853F8042B60
:103CD0008168019300F0A6FD03B05DF804EB04B029
:103CE000704700BF1C00002070B5054688B008462C
:103CF0000C46FCF765FE214E6A6B059001214318C6
:103D0000CDE9066104A8022104940393AC680190F4
:103D10000291002A2ED0626EB4F90C30D60701D47D
:103D2000980521D5990406D4626E43F4005322F419
:103D30000052A3816266284601AA214603F074FD61
:103D4000636E00280CBF0A254FF0FF35DA0702D456
:103D5000A3899B0502D5284608B070BDA06D00F070
:103D600039F9284608B070BDA06D00F031F9B4F9FA
:103D70000C30D7E72846FFF757FFCCE7989F00089D
:103D8000024B01461868FFF7AFBF00BF1C000020C0
:103D900010B50C46B1F90E1000F0BCF8002803DB9A
:103DA000236D0344236510BDA38923F48053A381AD
:103DB00010BD00BF2DE9F0410C46B1F90C101F46B3
:103DC000CB05054616460BD421F48051A1813B4614
:103DD000B4F90E1032462846BDE8F04100F0B0B804
:103DE000B4F90E100223002200F07EF8B4F90C1092
:103DF000EAE700BF10B50C46B1F90E1000F074F8F8
:103E0000B4F90C30421C0EBF23F4805343F48053AA
:103E10002065A38110BD00BFB1F90E1000F052B8AB
:103E2000830730B547D0541E002A3ED0CAB203469D
:103E300001E0013C39D303F8012B9D07F9D1032C94
:103E40002CD9CDB205EB05250F2C05EB054535D951
:103E5000A4F1100222F00F0C03F1100EE6444FEA19
:103E6000121C1A46C2E90055C2E9025510327245C9
:103E7000F8D10CF1010214F00C0F03EB021204F064
:103E80000F0C13D0ACF1040323F0030304331344E9
:103E900042F8045B9342FBD10CF003042CB1C9B28D
:103EA0001C4403F8011BA342FBD130BD64461346FA
:103EB000002CF4D1F9E703461446C0E71A46A4469D
:103EC000E0E700BF38B5074D0022044608462A60E7
:103ED000FDF724FE431C00D038BD2B68002BFBD01F
:103EE000236038BD5811002038B50C46084D844673
:103EF000114620461A4600232B606446FDF718FE43
:103F0000431C00D038BD2B68002BFBD0236038BD8C
:103F10005811002038B50C46084D844611462046FD
:103F20001A4600232B606446FDF7DAFD431C00D0DF
:103F300038BD2B68002BFBD0236038BD5811002002
:103F400038B50C46084D8446114620461A460023D3
:103F50002B606446FDF7D4FD431C00D038BD2B68B0
:103F6000002BFBD0236038BD58110020014B18688E
:103F7000704700BF1C00002070B50F4B0F4DAB42C7
:103F8000A3EB050607D0B610002455F8043B013416
:103F90009847A642F9D805F0B7FF094D094B5E1BBB
:103FA000AB424FEAA60606D0002455F8043B013484
:103FB0009847A642F9D870BDCCA80008CCA8000844
:103FC000CCA80008D4A80008704700BF704700BF05
:103FD000704700BF704700BF024B13B1024800F0AA
:103FE00005B87047000000000D7F0008002301465F
:103FF0001A46184603F0E2BF2DE9F84306460820AA
:10400000894603F097FFDFF89C800546304600F0B4
:10401000FDFBD8F808305F6827F00307A7F111040B
:10402000A4EB09042C44B4FBF5F4013C05FB04F4B7
:10403000A54208DC0021304603F056FFD8F80830CE
:104040003B44984205D0304600F0E6FB0020BDE836
:10405000F8836142304603F047FF01300FD0124A27
:10406000D8F808303F1B47F001075F6013683046FF
:104070001B1B136000F0D0FB0120BDE8F88300217A
:10408000304603F031FFD8F80820831A0F2BDADD11
:1040900043F001035360054B03491B68C01A0860D5
:1040A000D1E700BF500100206C1100204401002026
:1040B00000297CD0F8B50C46064600F0A7FB54F862
:1040C000043C764FA4F1080523F001016818D7F8E5
:1040D00008C04268844522F0030200F08380DB07B9
:1040E000426000EB020C33D454F8084CDCF8043086
:1040F0002D1B2144AC6807F1080C644503F0010353
:1041000064D0D5F80CE0C4F80CE0CEF80840002BE1
:1041100000F0818041F001036B600160B1F5007F28
:1041200022D27868CB080122490901338A40024330
:1041300057F833107A6007EBC302083AC5E9021258
:1041400047F83350CD603046BDE8F84000F064BB1E
:10415000DCF80430DB072BD541F00103B1F5007F1B
:1041600044F8043C0160DCD3B1F5206F4FEA5123E1
:1041700053D28B0903F1390003F13802C300F81858
:10418000FB580838984203D161E09B68984204D0FC
:104190005A6822F003028A42F7D8D868C5E902308B
:1041A0008560DD603046BDE8F84000F035BB704703
:1041B000114407F1080C836863453FD0C268DA6098
:1041C000936041F001036B606950A7E7002B5FD15A
:1041D0000A44D0E90213CB60996042F001036B609E
:1041E000AA50B0E70A44D90707D454F8083CED1A9E
:1041F0001A44D5E90213CB60996042F001036B6069
:10420000274BBD601B6893429DD8264B30461968EA
:10421000FFF7F2FE97E71144CDE7142B08D9542B92
:104220001DD80B0B03F16F0003F16E02C300A6E76C
:1042300003F15C0003F15B02C300A0E741F001035E
:10424000C7E90455C5E902CC6B6069507BE7796822
:104250009210012404FA02F20A437A609EE7B3F551
:10426000AA7F06D8CB0B03F1780003F17702C300D5
:1042700085E740F25452934206D88B0C03F17D003F
:1042800003F17C02C3007AE74FF47E737E2276E767
:1042900041F001036B60016055E700BF5001002051
:1042A000480100209C1100202DE9F04F01F10B0581
:1042B000162D83B0064623D8102900F2AF8000F0F7
:1042C000A5FA102518230220B74F3B44A3F108029A
:1042D0005C68944200F01F816368E268A16823F083
:1042E0000303CA602344304691605A6842F00102D9
:1042F0005A6000F091FA0834204603B0BDE8F08F10
:1043000035F0070500F18A80A94200F2878000F0AD
:104310007DFAB5F5FC7FC0F06E816B0A00F08280FB
:10432000042B00F21E81AB0903F1390003F1380EB2
:10433000C3009D4F3B44A3F1080C5C68A44507D122
:104340000DE0002AE16880F2E0808C4507D00C4641
:10435000636823F003035A1B0F2AF2DD7046DFF86F
:104360004C823C69444500F0BD80636823F0030C37
:10437000ACEB05030F2B00F34281002BC7E9048847
:1043800080F22D81BCF5007FD7F804E080F0C98071
:104390004FEADC0101314FEA5C1C012303FA0CF304
:1043A00057F83120A2604EEA030E07EBC103083B29
:1043B000E360C7F804E047F83140D46083104FF061
:1043C000010C0CFA03FCF44532D81CEA0E0F08D19C
:1043D00020F003004FEA4C0C1CEA0E0F00F1040021
:1043E000F8D007EBC00AD6468146DEF80C300BE069
:1043F000596821F003014A1B0F2A1C46DB6800F3B1
:10440000BC80002A80F2DE809E45F1D109F10109CD
:1044100019F0030F0EF1080EE7D119E10C233360F8
:10442000002469E74FF4007340204FF03F0E80E70F
:10443000BC68636823F00309A94503D3A9EB05030E
:104440000F2B52DC5A4B1B68082003F1100804EBB9
:104450000903009303F06EFD564A13680133A84424
:10446000834605D008F1FF388044434203EA080838
:104470004146304603F038FDB0F1FF3F4D4A8246D9
:1044800000F0D88004EB0903834200F2D1804A4B4C
:10449000186840440BF1FF311860844640F0FB80FF
:1044A0001AEA010F40F0F780D7F808A0C84448F096
:1044B0000102CAF80420414B1968814238BF1860D4
:1044C0003F4B1968814238BF1860544622F00308F8
:1044D000A845A8EB050301D30F2B06DC304600F0FE
:1044E0009BF99DE7D7F804E068E7621943F0010300
:1044F00045F0010565603046BA60536000F08CF904
:104500000834204603B0BDE8F08FA2682344D16090
:1045100030468A60E9E6DC68A3427FF4DDAE023013
:104520001DE7BCF5206F4FEA5C227AD3142A00F213
:10453000128102F15C03DB005B32F918FB58083989
:10454000994203D1ECE09B68994204D05A6822F06A
:1045500003026245F7D8D968C4E902318C60DC6097
:104560002CE7142B69D9542B00F2FE802B0B03F19E
:104570006F0003F16E0EC300DBE6D4F808C03046CE
:10458000661945F001056560CCF80C30C3F808C029
:1045900042F00103C7E90466C6E90288736062500D
:1045A00000F03AF90834A7E6500100205801002035
:1045B0009C110020440100206C1100209811002063
:1045C00094110020214430464A6842F001024A60BA
:1045D00054F8082FD3609A6000F01EF98CE6A444CA
:1045E0003046DCF8043043F00103CCF8043000F02E
:1045F00013F9083480E6E80805F1080364E6621957
:1046000043F0010145F0010565603046C7E9042229
:10461000C2E90288516044F80C3000F0FDF808341B
:104620006AE64FEA9C1202F13903DB00383284E774
:10463000BC4228D0BC68626848E703F15C0003F123
:104640005B0EC30075E65AF80839534540F0DA802E
:1046500010F0030F00F1FF30F5D17B6823EA0C0363
:104660007B604FEA4C0C9C453FF6E2AEBCF1000F7C
:1046700004D1DDE64FEA4C0C09F104091CEA030FF2
:10468000F8D04846ADE6604B186808EB000C0BF11B
:10469000FF31C3F800C0106801306FD004EB09028D
:1046A000AAEB020262441A601AF00702CDE9002365
:1046B00040D0C2F108029244D04408EA01005A44B2
:1046C000121A02EA010B5946304603F00DFC421C57
:1046D000019B6FD0A0EB0A0000EB0B081868C7F82D
:1046E00008A048F001025844BC42CAF804201860EF
:1046F0003FF4E1AEB9F10F0F43D96168A9F10C02A3
:1047000022F0070201F00101114361604FF0050C36
:10471000A1180F2AC1E901CC54D8DAF80420CAE65E
:1047200092104FF0010C0CFA02F24EEA020EC7F89A
:1047300004E011E70AEB08020A40ABEB020202EACE
:10474000010B5946304603F0CFFB431C019BC1D1FE
:10475000DDF800B0C2E7542A17D84FEA1C3202F144
:104760006F03DB006E32E8E6B3F5AA7F17D8EB0BD8
:1047700003F1780003F1770EC300DAE5C2F800A078
:1047800092E70123CAF80430A8E6B2F5AA7F24D83C
:104790004FEADC3202F17803DB007732CDE640F2FB
:1047A0005452934224D8AB0C03F17D0003F17C0EEC
:1047B000C300BEE5009A083A9044A8EB0A084FF0FF
:1047C000000B8BE7304604F108010093FFF770FC03
:1047D000009BD7F808A018689FE740F254539A420C
:1047E0000CD84FEA9C4202F17D03DB007C32A4E648
:1047F0004FF47E737F204FF07E0E9AE54FF47E7368
:104800007E229AE67B682CE76C1100200148FFF7B6
:10481000DFBB00BF5C1100200148FFF7DBBB00BF1E
:104820005C1100202DE9F04FDDB0164609911C46C1
:1048300083460F9303F054FB036818931846FCF764
:10484000BFF80822179000212CA8FFF7E9FABBF166
:10485000000F04D0DBF83430002B01F06B80099B93
:104860005A6EB3F90C30D50702D4980540F1728620
:10487000990407D409994A6E43F4005322F4005274
:104880008B814A661A0740F1CD80099A1269002A85
:1048900000F0C88003F01A020A2A00F0D280002338
:1048A00033AA0024CDE93133CDE91B331293199398
:1048B00020931D930B930023CDE9143430921446BA
:1048C000B246914BD3F8E45003F004FB2CAA034604
:1048D000009228A952465846A847002800F0D080E8
:1048E000C0F2C680289A252A034601D09A44E8E7F8
:1048F000BAEB0607054640F0C78000231A464FF082
:10490000FF318DF897300C930AF1010A9AF80030C4
:104910000A9108920AF1010AA3F120025A2A00F230
:10492000F580DFE812F00103F300F300FA02F30070
:10493000F300F3006A00F300F30075028702F3004E
:1049400080029402F3008D025B005B005B005B0061
:104950005B005B005B005B005B00F300F300F300B7
:10496000F300F300F300F3006D01F30001024803CC
:104970006D016D016D01F300F300F300F3004103DD
:10498000F300F3000C03F300F300F3001E02F30046
:104990002E03F300F300EB06F300F300F300F30043
:1049A000F300F300F300F3006D01F3000102500285
:1049B0006D016D016D0124035002FA01F3006203E1
:1049C000F300EB02E606B002FA01F3001E027C00DF
:1049D000E806F300F3001107F3007C00A3F13002B6
:1049E00000211AF8013B01EB810102EB4101A3F127
:1049F0003002092AF5D90C918EE7584603F070FA77
:104A000043681D931846FBF7DBFF20900546584688
:104A100003F066FA83681B93002D40F004869AF831
:104A2000003077E7099D5846294603F0CFF8002863
:104A300041F0AE83B5F90C3003F01A020A2A7FF474
:104A40002EAF0999B1F90E20002AFFF628AF4A6E61
:104A5000D50702D4980541F12681099923463246AB
:104A6000584601F0F7FC0B900B985DB0BDE8F08F55
:104A7000082200212CA8FFF7D3F901239A4420E74C
:104A8000BAEB0607054610D0329B3B443293319B6C
:104A90000133072BC4E90067319310DC08340B9B0A
:104AA0003B440B93002D7FF428AF329B002B41F049
:104AB000E380099B0022B3F90C30319218E0099988
:104AC00030AA584601F042FD78B933ACE7E70999BE
:104AD00030AA584601F03AFD002800F086800E9B6F
:104AE0001BB10E995846FFF7E3FA099BB3F90C3056
:104AF000099A526ED00740F106815A0601F154839B
:104B00000B985DB0BDE8F08F580500201093002B86
:104B1000CBD000228DF80C310123CDE90D328DF878
:104B2000972006930A9216921392119243AE089B15
:104B300013F0020302D00699023106910899329DC2
:104B400011F0840805D10C9906980F1A002F00F374
:104B50009E806AB101226260319A013201350DF105
:104B60009701072A32953192216000F3C3830834FC
:104B70006BB1319B26AA013302352260072B4FF01F
:104B8000020232953193626000F3C1830834B8F1B8
:104B9000800F00F0CA820A9B0D9A9F1A002F00F323
:104BA0000583089BDF0500F12A820D9B63601D448D
:104BB000319B26600133072B3295319300F3338309
:104BC0000834089B5E0705D50C9B069A9E1A002E9A
:104BD00000F3A883DDE90B3206998A42ACBF9B182B
:104BE0005B180B93002D7FF472AF002331930E9B63
:104BF0001BB10E995846FFF75BFA33AC56465FE699
:104C000010930F9B073323F00703F3E802780F9309
:104C100028F000431F931E97DDE91E01B24B4FF0B1
:104C2000FF32CDE91478FCF7BFFA002840F00B857D
:104C3000DDE91E01AC4B4FF0FF32FCF797FA00287C
:104C400040F001850022002338464146FCF784FAF3
:104C5000002841F014819DF89720089BA34E23F073
:104C600080030893A24B10994729D8BF1E46002302
:104C700003210E9306910D910A93169313931193AA
:104C8000002A3FF454AF069B013306934FE7102FE1
:104C9000319A41F33582DFF85CC2CDF868C0214615
:104CA0002846099C21934FF01009654604E0103F07
:104CB000102F01F1080115DD01321030072AC1E97A
:104CC0000059CDE93120F2DD30AA2146584601F0E5
:104CD0003DFC00287FF403AF103F102FDDE93120A9
:104CE00033A9E9DC219B0C46054601321A99216063
:104CF0003D44072ACDE93125676000F30B869DF816
:104D00009720083425E799053FF5F7AE099CA06D7B
:104D1000FFF760F9B4F90C30EFE6089B43F020038D
:104D200008939AF80030F5E50F9A1093432B02F19F
:104D3000040500F04985089BDA0600F145850F9BC4
:104D40001B688DF80C31012306930D9343AE0022AE
:104D50000F958DF897200E920A9216921392119247
:104D6000E5E60F9F109357F8046B00238DF89730FA
:104D7000002E00F01885109B532B00F0F185089B46
:104D800013F01003119340F0EB850A9B002BC0F247
:104D9000608711991A463046FBF782FE0E90002874
:104DA00001F07E820E9B11999DF897200F979B1B17
:104DB0000D9323EAE373069373230A9116911391DB
:104DC0000E9110935CE71093089B9B0640F1FC80CA
:104DD0000F9B073323F007031A46596852F8083B24
:104DE0000F920A460029C0F2FF830A990029C0F2F7
:104DF0006D82089921F0800553EA020140F0678234
:104E00000A9A002A40F0688208950D925CAE62E131
:104E10000F9B53F8042B0C92002A80F2A8830C9A63
:104E20000F9352420C92089B43F0040308939AF8A4
:104E300000306FE52B238DF897309AF8003069E544
:104E4000089B43F0800308939AF8003062E55046CF
:104E500010F8013B2A2B01F0B182A3F13002092A9C
:104E600098BF002101F2508110F8013B01EB810154
:104E700002EB4101A3F13002092AF5D941EAE172BE
:104E80000A92824648E50F9A089B43F0020552F8C1
:104E9000043B0F9247F63002ADF898207820164A6E
:104EA000199202210022109000200A9E8DF897008E
:104EB000002EC0F2F98025F08000089053EA02002D
:104EC00040F0F180002E40F03A85002940F0B38494
:104ED00015F001030D9300F0758330238DF86F31C9
:104EE0000DF26F16F7E000BFFFFFEF7FB49F0008E1
:104EF000B09F000890A60008C09F0008089B9D0670
:104F000040F180830F9B0B9A1B681A60D2175A607E
:104F10000F9B04330F935646D2E4089B43F00103E2
:104F200008939AF80030F5E49DF897209AF800303D
:104F3000002A7FF4EFAC20228DF89720EAE410934A
:104F4000089B43F010030893089B13F0200200F025
:104F5000E2820F9B073323F0070319465A6851F882
:104F6000083B0F91089921F4806500219CE79AF88D
:104F70000030682B00F00284089A42F04002089248
:104F8000C8E41093089B43F0100515F0200200F0D0
:104F9000D3820F9B073323F0070319465A6851F851
:104FA000083B0F9101217FE7089B43F0080308931A
:104FB0009AF80030AEE41093089B43F01003089376
:104FC000089B9B063FF504AF0F9A52F8043B0F92E3
:104FD000089AD70600F10383089A560640F1FB822F
:104FE00043F3C03211461BB2FCE69AF800306C2B3A
:104FF00000F0BA83089A42F0100208928AE4109BEB
:10500000652B40F31B81DDE9140100220023FCF72E
:1050100099F8002800F0C181319BB44A2260013325
:1050200001350122072B32953193626000F38C84A5
:105030000834279B129A934280F29482179B189A05
:105040001D44C4E90023319B32950133072B319372
:1050500000F39E830834129B5E1E002E7FF7B1ADD5
:10506000102E319BDFF8889240F3D380DDF8248046
:10507000102704E00834103E102E40F3CA8001339C
:105080001035072BC4E90097CDE93135F2DD30AAA0
:105090004146584601F05AFA00287FF420ADDDE978
:1050A000313533ACE7E7089D012900F01081022972
:1050B0005CAE1FD1199803F00F011B09415C06F883
:1050C000011D43EA0273120953EA0201F3D15CABFA
:1050D0009B1B08950D930A990D989DF89720814286
:1050E0004FF00003B8BF01460E9306911693139339
:1050F0001193C5E503F00701DB0843EA4273D208C8
:10510000303153EA0207304606F8011DF2D1EB07B1
:10511000DDD53029DBD03023023806F8013C5CAB0A
:105120001B1A08950D930646D5E70C9B069A9F1A05
:10513000002F7FF730AD102F319BDFF8B49123DDC6
:105140002A464FF010084D46DDF8249004E0103F49
:10515000102F04F1080415DD01331032072BC4E9C8
:105160000058CDE93132F2DD30AA4946584601F007
:10517000EDF900287FF4B3AC103F102FDDE9313298
:1051800033ACE9DCA946154601333D44072BCDE994
:105190003135C4F80090676000F3DA820A9B0D9AFB
:1051A0009F1A002F04F108047FF7FBAC102F319BEE
:1051B000DFF83C9121DD2A464FF01008099D04E0FC
:1051C000103F102F04F1080416DD01334849103256
:1051D000072BC4E90018CDE93132F1DD30AA2946A8
:1051E000584601F0B3F900287FF479AC103F102F36
:1051F000DDE9313233ACE8DC154601333D44072BA1
:10520000CDE93135C4F80090676000F37881083447
:10521000C7E401333544072BC4F800906660CDE93C
:1052200031357FF7CDAC099930AA584601F08EF997
:1052300000287FF454AC329D33ACC2E4129B319F02
:10524000012B05F1010507F1010704F1080840F3FE
:1052500012810123072FCDE931752660636000F3C9
:10526000FB82179B189A01371D44072FC8E90023BA
:10527000CDE9317500F3E38208F10808129BDDE9FE
:1052800014015C1E00220023FBF75CFF002840F0A5
:105290000B81013701362544072FCDE93175C8F858
:1052A0000060C8F8044000F3F28008F108081C9B75
:1052B000C8F8043001371D44072F2AABCDE93175FA
:1052C000C8F80030AFDC08F108047AE4089D0A2B26
:1052D00072F1000180F0CD8230338DF86F310123FF
:1052E00008950D930DF26F16F5E600BFF09F0008CC
:1052F00080A6000809991A9330AA584601F026F9A9
:1053000000287FF4ECAB329D1A9B33AC30E4099952
:1053100030AA584601F01AF900287FF4E0AB329D1C
:1053200033AC34E4102E319B40F34387DFF8C8924E
:10533000DDF82480CDF86890102704E0103E102E90
:1053400004F1080415DD01331035072BC4E900977B
:10535000CDE93135F2DD30AA4146584601F0F6F884
:1053600000287FF4BCAB103E102EDDE9313533ACA4
:10537000E9DC01331A9A3544072BC4E90026CDE94C
:1053800031357FF727AC099930AA584601F0DEF88D
:1053900000287FF4A4AB329D1CE42799002940F338
:1053A000EB80DDE911839845A8BF9846B8F1000F5E
:1053B0000ADD319B01334544072BC4E9006832956F
:1053C000319300F384860834119FB8F1000FA8BF11
:1053D000A7EB0807002F00F35783119B33440A9370
:1053E000089B590500F17185279B129A9342C0F2E0
:1053F0000382089AD20700F1FF81129AB718D61AD1
:105400000A9BFF1AB742A8BF3746002F0ADD236068
:10541000319B676001333D44072B3295319300F394
:10542000A4860834002FA8BFF61B002E7FF7C9AB57
:10543000102E319BDFF8C4917FF7EBAEDDF82480AE
:10544000102704E00834103E102E7FF7E2AE01333F
:105450001035072BC4E90097CDE93135F2DD30AACC
:105460004146584601F072F800287FF438ABDDE978
:10547000313533ACE7E7089BDB073FF5EAAE0123A4
:10548000072FCDE93175266063607FF710AF09996A
:1054900030AA584601F05AF800287FF420ABDDE925
:1054A00031750DF1CC0802E7129B012B7FF7FFAE9F
:1054B000112BDFF8489140F3BC82CDF828A01026CC
:1054C000CA46DDF8249005E008F10808103C102CCD
:1054D00040F3AC8201371035072FC8E900A6CDE9AB
:1054E0003175F1DD30AA4946584601F02FF8002801
:1054F0007FF4F5AADDE931750DF1CC08E6E70999ED
:1055000030AA584601F022F800287FF4E8AA329D1C
:1055100033ACFFF746BB0F9951F8043B0F91089944
:1055200011F010017FF41EAD089A12F0400000F057
:10553000D7829BB20A4615E50F9951F8043B0F91AB
:1055400015F0100145D115F040003DD00A469BB240
:105550000121A9E4099DA86DFEF73AFDB5F90C30CB
:10556000FFF786B9089BD8077FF52BAB66E50F934D
:105570009AF80030FFF7CEB9319B214A22600133FF
:1055800001350122072B32953193626000F3828549
:105590000834002940F05982089B129A03F0010355
:1055A00013433FF40EAB179B189A1D44C4E9002324
:1055B000319B32950133072B319300F3678304F15C
:1055C000080253E25CAE86E515F400721CBFDBB244
:1055D0000246012168E4089A950500F11C83DA1758
:1055E00011460029BFF601AC5B42089D62EB420206
:1055F0002D20012159E400BF90A6000880A60008D4
:10560000F09F0008089BD80600F10A82089B590603
:1056100000F10783089B9A0540F102820F9B0B9AC9
:105620001B681A7074E41B9A9AF80030002A3FF441
:1056300071A91278002A3FF46DA9089A42F4806299
:105640000892FFF767B9DDE9140102460B46FBF744
:10565000ABFD002840F03B86109B612B00F03585A8
:10566000412B00F0E4820A9B013300F01486109B6A
:1056700023F02003472B00F0CF850E90DDE91412B4
:105680000898002A40F48079C0F2FC8400231A9321
:10569000DDE91423CDE92223109B413B252B00F2A9
:1056A0003782DFE813F05703350235023502110364
:1056B000E103350235023502350235023502350285
:1056C0003502350235023502350235023502350222
:1056D0003502350235023502350235023502350212
:1056E0003502350235025703350235023502110302
:1056F000E103109328E4089D109346E41093A14B16
:105700001993089B13F0200200F084800F9B07334D
:1057100023F0070319465A6851F8083B0F9108987F
:10572000C1070BD553EA020108D010998DF89910E2
:1057300040F00201089130218DF89810089921F469
:1057400080650221FFF7B0BB10938F4B1993D8E708
:10575000099930AA584600F0F9FE00287FF4BFA945
:10576000329D33ACFFF717BA089B43F02003089330
:105770000AF1010A9AF80030FFF7CCB8089B43F40D
:10578000007308930AF1010A9AF80030FFF7C2B8D3
:10579000099930AA584600F0D9FE00287FF49FA945
:1057A000329D33AC57E40A9B0E96062B314628BF38
:1057B00006230A9632460693744E0F970D93169160
:1057C00013911191FFF75CBA082200212EA8FEF771
:1057D00027FB0F9B43AE1A6831462EAB584604F0A8
:1057E0008BF9034601330D9000F018860D9B23EAD8
:1057F000E3730693FFF7ABBA179A18991544C4E9F7
:105800000012319A32950132072A319200F36B84EB
:105810000834F2E50F9951F8043B0F91089911F003
:1058200010017FF47CAF089A12F0400000F0518123
:105830009BB20A4673E70A9B0D935CAE4BE4099951
:1058400030AA584600F082FE00287FF448A9DDE91E
:1058500031750DF1CC0811E5099930AA584600F0D0
:1058600075FE00287FF43BA9DDE931750DF1CC0808
:10587000F7E40D94DFF818911B9CCDF820A005F4F7
:1058800080674FF0000C5CAE4FF00508069505E010
:105890000A2B72F1000234D353462A46991841F17B
:1058A0000001A9FB010525F0030000EB9500091A92
:1058B000581A4FF0CC3562F1000E05FB00F5A0FB45
:1058C00009A009FB0E550AF0010E0544AEFB080EB7
:1058D00040184FEA5A0A303006F8010C4AEAC57AF5
:1058E0000CF1010C013E6D08002FD1D021788C45C0
:1058F000CED1BCF1FF0FCBD00A2B72F1000280F0A9
:105900009D831B94DDF820A0069D0D9CCDF848C01A
:10591000FFF7DDBB09991A9330AA584600F016FE2E
:1059200000287FF4DCA89DF89720329D1A9B33ACA9
:10593000FFF70FB95846FEF777F9FEF790BF012938
:10594000089D7FF4B4ABC7E4099930AA584600F02B
:10595000FDFD00287FF4C3A8329D33ACFFF769BB7F
:105960000DF1B8080822002140462996FEF758FAA2
:105970000A9B002BC0F253830025069799462F46B9
:1059800017E000BFD49F0008C09F0008E89F0008F0
:10599000CDCCCCCC43A9584604F0AEF8431C3844D7
:1059A00000F06984484509DC05F1040500F08784AE
:1059B0000746299A52594346002AEBD10D97069F74
:1059C0000D9B002B00F05283632B40F31684591C6F
:1059D0005846FEF769FC0646002800F031850E9017
:1059E000082200214046FEF71BFA0D9DCDF80080ED
:1059F0002B4629AA3146584604F0A4F8854240F0C7
:105A000019850D990F970023735421EAE1719DF8D0
:105A100097200A930691169313931193FFF730B9C9
:105A20000F9B0B9A1B681A60FFF772BAD146DDF81C
:105A300028A0C8F8009001372544072FCDE931751B
:105A4000C8F804407FF731AC21E5179B189A1D4434
:105A5000C4E90023319B32950133072B319300F3C6
:105A6000158104F108020029C0F2A783129916607B
:105A700001330D44072BCDE9313551603FF7D3ABEE
:105A800002F10804FFF79DB8102F319BDFF8BC929C
:105A900032DD49462A46B146099D4FF010080E46B0
:105AA00003E00834103F102F22DD01331032072BA2
:105AB000C4E90068CDE93132F3DD30AA2946584601
:105AC00000F044FD00287FF40AA8DDE9313233AC50
:105AD000E8E7089A12F400721CBFDBB202461EE629
:105AE000089A12F400721CBFDBB20246FFF73ABA02
:105AF000154632464E46914601333D44072BCDE9CB
:105B00003135C4F80090676000F3D280083464E453
